{
  "_format": "hh-sol-artifact-1",
  "contractName": "NoxFi",
  "sourceName": "contracts/noxfi.sol",
  "abi": [
    {
      "inputs": [
        {
          "internalType": "address",
          "name": "_WETHAddr",
          "type": "address"
        },
        {
          "internalType": "address",
          "name": "_DAIAddr",
          "type": "address"
        },
        {
          "internalType": "address",
          "name": "_matcherAddr",
          "type": "address"
        },
        {
          "internalType": "address",
          "name": "_depositVerifierAddr",
          "type": "address"
        },
        {
          "internalType": "address",
          "name": "_withdrawVerifierAddr",
          "type": "address"
        },
        {
          "internalType": "address",
          "name": "_orderVerifierAddr",
          "type": "address"
        },
        {
          "internalType": "address",
          "name": "_settleVerifierAddr",
          "type": "address"
        },
        {
          "internalType": "address",
          "name": "_cancelVerifierAddr",
          "type": "address"
        }
      ],
      "stateMutability": "nonpayable",
      "type": "constructor"
    },
    {
      "inputs": [],
      "name": "DAIAddr",
      "outputs": [
        {
          "internalType": "address",
          "name": "",
          "type": "address"
        }
      ],
      "stateMutability": "view",
      "type": "function"
    },
    {
      "inputs": [],
      "name": "WETHAddr",
      "outputs": [
        {
          "internalType": "address",
          "name": "",
          "type": "address"
        }
      ],
      "stateMutability": "view",
      "type": "function"
    },
    {
      "inputs": [
        {
          "internalType": "uint256",
          "name": "",
          "type": "uint256"
        }
      ],
      "name": "cArr",
      "outputs": [
        {
          "internalType": "uint256",
          "name": "",
          "type": "uint256"
        }
      ],
      "stateMutability": "view",
      "type": "function"
    },
    {
      "inputs": [
        {
          "internalType": "uint256[2]",
          "name": "a",
          "type": "uint256[2]"
        },
        {
          "internalType": "uint256[2][2]",
          "name": "b",
          "type": "uint256[2][2]"
        },
        {
          "internalType": "uint256[2]",
          "name": "c",
          "type": "uint256[2]"
        },
        {
          "internalType": "uint256[3]",
          "name": "input",
          "type": "uint256[3]"
        }
      ],
      "name": "cancel",
      "outputs": [],
      "stateMutability": "nonpayable",
      "type": "function"
    },
    {
      "inputs": [],
      "name": "cancelVerifierAddr",
      "outputs": [
        {
          "internalType": "address",
          "name": "",
          "type": "address"
        }
      ],
      "stateMutability": "view",
      "type": "function"
    },
    {
      "inputs": [
        {
          "internalType": "uint256[2]",
          "name": "a",
          "type": "uint256[2]"
        },
        {
          "internalType": "uint256[2][2]",
          "name": "b",
          "type": "uint256[2][2]"
        },
        {
          "internalType": "uint256[2]",
          "name": "c",
          "type": "uint256[2]"
        },
        {
          "internalType": "uint256[3]",
          "name": "input",
          "type": "uint256[3]"
        }
      ],
      "name": "deposit",
      "outputs": [],
      "stateMutability": "nonpayable",
      "type": "function"
    },
    {
      "inputs": [],
      "name": "depositVerifierAddr",
      "outputs": [
        {
          "internalType": "address",
          "name": "",
          "type": "address"
        }
      ],
      "stateMutability": "view",
      "type": "function"
    },
    {
      "inputs": [
        {
          "internalType": "uint256",
          "name": "",
          "type": "uint256"
        }
      ],
      "name": "mArr",
      "outputs": [
        {
          "internalType": "uint256",
          "name": "",
          "type": "uint256"
        }
      ],
      "stateMutability": "view",
      "type": "function"
    },
    {
      "inputs": [
        {
          "internalType": "uint256",
          "name": "oidx",
          "type": "uint256"
        },
        {
          "internalType": "bool",
          "name": "isMatched",
          "type": "bool"
        }
      ],
      "name": "matchOrder",
      "outputs": [],
      "stateMutability": "nonpayable",
      "type": "function"
    },
    {
      "inputs": [],
      "name": "matcherAddr",
      "outputs": [
        {
          "internalType": "address",
          "name": "",
          "type": "address"
        }
      ],
      "stateMutability": "view",
      "type": "function"
    },
    {
      "inputs": [
        {
          "internalType": "uint256",
          "name": "",
          "type": "uint256"
        }
      ],
      "name": "nArr",
      "outputs": [
        {
          "internalType": "uint256",
          "name": "",
          "type": "uint256"
        }
      ],
      "stateMutability": "view",
      "type": "function"
    },
    {
      "inputs": [
        {
          "internalType": "uint256",
          "name": "",
          "type": "uint256"
        }
      ],
      "name": "oArr",
      "outputs": [
        {
          "internalType": "uint256",
          "name": "",
          "type": "uint256"
        }
      ],
      "stateMutability": "view",
      "type": "function"
    },
    {
      "inputs": [
        {
          "internalType": "uint256",
          "name": "",
          "type": "uint256"
        }
      ],
      "name": "onArr",
      "outputs": [
        {
          "internalType": "uint256",
          "name": "",
          "type": "uint256"
        }
      ],
      "stateMutability": "view",
      "type": "function"
    },
    {
      "inputs": [
        {
          "internalType": "uint256[2]",
          "name": "a",
          "type": "uint256[2]"
        },
        {
          "internalType": "uint256[2][2]",
          "name": "b",
          "type": "uint256[2][2]"
        },
        {
          "internalType": "uint256[2]",
          "name": "c",
          "type": "uint256[2]"
        },
        {
          "internalType": "uint256[2]",
          "name": "input",
          "type": "uint256[2]"
        }
      ],
      "name": "order",
      "outputs": [],
      "stateMutability": "nonpayable",
      "type": "function"
    },
    {
      "inputs": [],
      "name": "orderVerifierAddr",
      "outputs": [
        {
          "internalType": "address",
          "name": "",
          "type": "address"
        }
      ],
      "stateMutability": "view",
      "type": "function"
    },
    {
      "inputs": [
        {
          "internalType": "uint256",
          "name": "price",
          "type": "uint256"
        }
      ],
      "name": "setSettlementPrice",
      "outputs": [],
      "stateMutability": "nonpayable",
      "type": "function"
    },
    {
      "inputs": [
        {
          "internalType": "uint256[2]",
          "name": "a",
          "type": "uint256[2]"
        },
        {
          "internalType": "uint256[2][2]",
          "name": "b",
          "type": "uint256[2][2]"
        },
        {
          "internalType": "uint256[2]",
          "name": "c",
          "type": "uint256[2]"
        },
        {
          "internalType": "uint256[4]",
          "name": "input",
          "type": "uint256[4]"
        }
      ],
      "name": "settle",
      "outputs": [],
      "stateMutability": "nonpayable",
      "type": "function"
    },
    {
      "inputs": [],
      "name": "settleVerifierAddr",
      "outputs": [
        {
          "internalType": "address",
          "name": "",
          "type": "address"
        }
      ],
      "stateMutability": "view",
      "type": "function"
    },
    {
      "inputs": [],
      "name": "settlementPrice",
      "outputs": [
        {
          "internalType": "uint256",
          "name": "",
          "type": "uint256"
        }
      ],
      "stateMutability": "view",
      "type": "function"
    },
    {
      "inputs": [
        {
          "internalType": "uint256[2]",
          "name": "a",
          "type": "uint256[2]"
        },
        {
          "internalType": "uint256[2][2]",
          "name": "b",
          "type": "uint256[2][2]"
        },
        {
          "internalType": "uint256[2]",
          "name": "c",
          "type": "uint256[2]"
        },
        {
          "internalType": "uint256[3]",
          "name": "input",
          "type": "uint256[3]"
        }
      ],
      "name": "verifyCancelProof",
      "outputs": [
        {
          "internalType": "bool",
          "name": "",
          "type": "bool"
        }
      ],
      "stateMutability": "view",
      "type": "function"
    },
    {
      "inputs": [
        {
          "internalType": "uint256[2]",
          "name": "a",
          "type": "uint256[2]"
        },
        {
          "internalType": "uint256[2][2]",
          "name": "b",
          "type": "uint256[2][2]"
        },
        {
          "internalType": "uint256[2]",
          "name": "c",
          "type": "uint256[2]"
        },
        {
          "internalType": "uint256[3]",
          "name": "input",
          "type": "uint256[3]"
        }
      ],
      "name": "verifyDepositProof",
      "outputs": [
        {
          "internalType": "bool",
          "name": "",
          "type": "bool"
        }
      ],
      "stateMutability": "view",
      "type": "function"
    },
    {
      "inputs": [
        {
          "internalType": "uint256[2]",
          "name": "a",
          "type": "uint256[2]"
        },
        {
          "internalType": "uint256[2][2]",
          "name": "b",
          "type": "uint256[2][2]"
        },
        {
          "internalType": "uint256[2]",
          "name": "c",
          "type": "uint256[2]"
        },
        {
          "internalType": "uint256[2]",
          "name": "input",
          "type": "uint256[2]"
        }
      ],
      "name": "verifyOrderProof",
      "outputs": [
        {
          "internalType": "bool",
          "name": "",
          "type": "bool"
        }
      ],
      "stateMutability": "view",
      "type": "function"
    },
    {
      "inputs": [
        {
          "internalType": "uint256[2]",
          "name": "a",
          "type": "uint256[2]"
        },
        {
          "internalType": "uint256[2][2]",
          "name": "b",
          "type": "uint256[2][2]"
        },
        {
          "internalType": "uint256[2]",
          "name": "c",
          "type": "uint256[2]"
        },
        {
          "internalType": "uint256[4]",
          "name": "input",
          "type": "uint256[4]"
        }
      ],
      "name": "verifySettleProof",
      "outputs": [
        {
          "internalType": "bool",
          "name": "",
          "type": "bool"
        }
      ],
      "stateMutability": "view",
      "type": "function"
    },
    {
      "inputs": [
        {
          "internalType": "uint256[2]",
          "name": "a",
          "type": "uint256[2]"
        },
        {
          "internalType": "uint256[2][2]",
          "name": "b",
          "type": "uint256[2][2]"
        },
        {
          "internalType": "uint256[2]",
          "name": "c",
          "type": "uint256[2]"
        },
        {
          "internalType": "uint256[3]",
          "name": "input",
          "type": "uint256[3]"
        }
      ],
      "name": "verifyWithdrawProof",
      "outputs": [
        {
          "internalType": "bool",
          "name": "",
          "type": "bool"
        }
      ],
      "stateMutability": "view",
      "type": "function"
    },
    {
      "inputs": [
        {
          "internalType": "uint256[2]",
          "name": "a",
          "type": "uint256[2]"
        },
        {
          "internalType": "uint256[2][2]",
          "name": "b",
          "type": "uint256[2][2]"
        },
        {
          "internalType": "uint256[2]",
          "name": "c",
          "type": "uint256[2]"
        },
        {
          "internalType": "uint256[3]",
          "name": "input",
          "type": "uint256[3]"
        }
      ],
      "name": "withdraw",
      "outputs": [],
      "stateMutability": "nonpayable",
      "type": "function"
    },
    {
      "inputs": [],
      "name": "withdrawVerifierAddr",
      "outputs": [
        {
          "internalType": "address",
          "name": "",
          "type": "address"
        }
      ],
      "stateMutability": "view",
      "type": "function"
    },
    {
      "inputs": [
        {
          "internalType": "uint256",
          "name": "",
          "type": "uint256"
        }
      ],
      "name": "zArr",
      "outputs": [
        {
          "internalType": "uint256",
          "name": "",
          "type": "uint256"
        }
      ],
      "stateMutability": "view",
      "type": "function"
    }
  ],
  "bytecode": "0x60806040523480156200001157600080fd5b5060405162001720380380620017208339810160408190526200003491620000e3565b600080546001600160a01b03199081166001600160a01b039a8b1617909155600180548216988a16989098179097556002805488169689169690961790955560038054871694881694909417909355600480548616928716929092179091556005805485169186169190911790556006805484169185169190911790556007805490921692169190911790556200018b565b80516001600160a01b0381168114620000de57600080fd5b919050565b600080600080600080600080610100898b0312156200010157600080fd5b6200010c89620000c6565b97506200011c60208a01620000c6565b96506200012c60408a01620000c6565b95506200013c60608a01620000c6565b94506200014c60808a01620000c6565b93506200015c60a08a01620000c6565b92506200016c60c08a01620000c6565b91506200017c60e08a01620000c6565b90509295985092959890939650565b611585806200019b6000396000f3fe608060405234801561001057600080fd5b50600436106101a95760003560e01c8063763d100a116100f9578063b23ce96e11610097578063d6b96dd611610071578063d6b96dd6146103a0578063edda3a61146103b3578063f348e8b2146103c6578063f86fda81146103cf57600080fd5b8063b23ce96e14610367578063b57dc0f61461037a578063b7e0f3b41461038d57600080fd5b8063980bf8c1116100d3578063980bf8c11461031b578063988969ef1461032e578063abdc380814610341578063afa57a821461035457600080fd5b8063763d100a146102e25780639232d6aa146102f5578063935e73b91461030857600080fd5b80634c74a69a116101665780635dc13b28116101405780635dc13b2814610296578063665b29b6146102a95780636c05ac60146102bc57806374cbc6b4146102cf57600080fd5b80634c74a69a1461025d5780634f0464aa14610270578063530356f51461028357600080fd5b8063143178af146101ae5780631f58bd65146101de57806322965f17146102015780632318b7ad146102145780632d2fbf30146102355780632fa099531461024a575b600080fd5b6001546101c1906001600160a01b031681565b6040516001600160a01b0390911681526020015b60405180910390f35b6101f16101ec366004611157565b6103e2565b60405190151581526020016101d5565b6004546101c1906001600160a01b031681565b61022761022236600461120f565b610463565b6040519081526020016101d5565b610248610243366004611157565b610484565b005b610248610258366004611239565b61062b565b6007546101c1906001600160a01b031681565b61024861027e366004611157565b6108c4565b6101f1610291366004611269565b610a7b565b6101f16102a4366004611157565b610ab2565b6102276102b736600461120f565b610aea565b6101f16102ca3660046112de565b610afa565b6102486102dd366004611157565b610b31565b6102276102f036600461120f565b610cba565b6003546101c1906001600160a01b031681565b61024861031636600461120f565b610cca565b61022761032936600461120f565b610d37565b61024861033c3660046112de565b610d47565b6000546101c1906001600160a01b031681565b6002546101c1906001600160a01b031681565b61022761037536600461120f565b610e3e565b6005546101c1906001600160a01b031681565b6006546101c1906001600160a01b031681565b6102276103ae36600461120f565b610e4e565b6101f16103c1366004611157565b610e5e565b610227600e5481565b6102486103dd366004611269565b610e95565b6007546040516308a3cff560e11b81526000916001600160a01b0316906311479fea906104199088908890889088906004016113b9565b602060405180830381865afa158015610436573d6000803e3d6000fd5b505050506040513d601f19601f8201168201806040525081019061045a9190611416565b95945050505050565b600d818154811061047357600080fd5b600091825260209091200154905081565b61049084848484610ab2565b6104b55760405162461bcd60e51b81526004016104ac9061143a565b60405180910390fd5b60005b60095481101561054057815160098054839081106104d8576104d8611465565b9060005260206000200154036105305760405162461bcd60e51b815260206004820152601e60248201527f546865206e756c6c6966696572204e20616c726561647920657869737473000060448201526064016104ac565b61053981611491565b90506104b8565b5060408101511561055c576001546001600160a01b0316610569565b6000546001600160a01b03165b6001600160a01b031663a9059cbb33836001602002015161059290670de0b6b3a76400006114aa565b6040516001600160e01b031960e085901b1681526001600160a01b03909216600483015260248201526044016020604051808303816000875af11580156105dd573d6000803e3d6000fd5b505050506040513d601f19601f820116820180604052508101906106019190611416565b5060098160005b602090810291909101518254600181018455600093845291909220015550505050565b6002546001600160a01b031633146106855760405162461bcd60e51b815260206004820152601d60248201527f4f6e6c79204d6174636865722063616e206d616b652061206d6174636800000060448201526064016104ac565b6000805b600a548110156106ed57600a84815481106106a6576106a6611465565b9060005260206000200154600a82815481106106c4576106c4611465565b9060005260206000200154036106dd57600191506106ed565b6106e681611491565b9050610689565b50806107315760405162461bcd60e51b8152602060048201526013602482015272151a194813c8191bd95cdb89dd08195e1a5cdd606a1b60448201526064016104ac565b60005b600b548110156107cf57600a848154811061075157610751611465565b9060005260206000200154600b828154811061076f5761076f611465565b9060005260206000200154036107bf5760405162461bcd60e51b8152602060048201526015602482015274151a194813c8185b1c9958591e481b585d18da1959605a1b60448201526064016104ac565b6107c881611491565b9050610734565b5060005b600c5481101561086f57600a84815481106107f0576107f0611465565b9060005260206000200154600c828154811061080e5761080e611465565b90600052602060002001540361085f5760405162461bcd60e51b8152602060048201526016602482015275151a194813c8185b1c9958591e4818d85b98d95b195960521b60448201526064016104ac565b61086881611491565b90506107d3565b5081156108af57600b600a848154811061088b5761088b611465565b60009182526020808320909101548354600181018555938352912090910155505050565b600c600a848154811061088b5761088b611465565b6108d0848484846103e2565b6108ec5760405162461bcd60e51b81526004016104ac9061143a565b6000805b600c54811015610939578251600c80548390811061091057610910611465565b9060005260206000200154036109295760019150610939565b61093281611491565b90506108f0565b50806109925760405162461bcd60e51b815260206004820152602260248201527f546865206f726465722068617665206e65766572206265656e2063616e63656c604482015261195960f21b60648201526084016104ac565b60005b600d54811015610a18576020830151600d8054839081106109b8576109b8611465565b906000526020600020015403610a085760405162461bcd60e51b8152602060048201526015602482015274546865204f4e20616c72656164792065786973747360581b60448201526064016104ac565b610a1181611491565b9050610995565b506020820151600d80546001810182556000919091527fd7b6990105719101dabeb77144f2a3385c8033acd3af97e9423a695e81ad1eb5015560088260025b60209081029190910151825460018101845560009384529190922001555050505050565b600654604051635fe8c13b60e01b81526000916001600160a01b031690635fe8c13b906104199088908890889088906004016114c7565b600480546040516308a3cff560e11b81526000926001600160a01b03909216916311479fea91610419918991899189918991016113b9565b600a818154811061047357600080fd5b600554604051637ae4eb4f60e11b81526000916001600160a01b03169063f5c9d69e90610419908890889088908890600401611518565b610b3d84848484610e5e565b610b595760405162461bcd60e51b81526004016104ac9061143a565b60005b600854811015610be45781516008805483908110610b7c57610b7c611465565b906000526020600020015403610bd45760405162461bcd60e51b815260206004820152601b60248201527f54686520636f6d6d6974205a20616c726561647920657869737473000000000060448201526064016104ac565b610bdd81611491565b9050610b5c565b50604081015115610c00576001546001600160a01b0316610c0d565b6000546001600160a01b03165b6001600160a01b03166323b872dd33308460016020020151610c3790670de0b6b3a76400006114aa565b6040516001600160e01b031960e086901b1681526001600160a01b03938416600482015292909116602483015260448201526064016020604051808303816000875af1158015610c8b573d6000803e3d6000fd5b505050506040513d601f19601f82011682018060405250810190610caf9190611416565b506008816000610608565b600b818154811061047357600080fd5b6002546001600160a01b03163314610d325760405162461bcd60e51b815260206004820152602560248201527f4f6e6c79204d6174636865722063616e2073657420736574746c656d656e7420604482015264707269636560d81b60648201526084016104ac565b600e55565b600c818154811061047357600080fd5b610d5384848484610afa565b610d6f5760405162461bcd60e51b81526004016104ac9061143a565b60005b600954811015610dfa5781516009805483908110610d9257610d92611465565b906000526020600020015403610dea5760405162461bcd60e51b815260206004820152601e60248201527f546865206e756c6c6966696572204e20616c726561647920657869737473000060448201526064016104ac565b610df381611491565b9050610d72565b50805160098054600180820183556000929092527f6e1540171b6c0c960b71a7020d9f60077f6af931a8bbf590da0223dacf75c7af0191909155600a908290610608565b6009818154811061047357600080fd5b6008818154811061047357600080fd5b6003546040516308a3cff560e11b81526000916001600160a01b0316906311479fea906104199088908890889088906004016113b9565b610ea184848484610a7b565b610ebd5760405162461bcd60e51b81526004016104ac9061143a565b600e54606082015114610f0b5760405162461bcd60e51b815260206004820152601660248201527557726f6e6720736574746c656d656e7420707269636560501b60448201526064016104ac565b6000805b600b54811015610f58578251600b805483908110610f2f57610f2f611465565b906000526020600020015403610f485760019150610f58565b610f5181611491565b9050610f0f565b5080610fb05760405162461bcd60e51b815260206004820152602160248201527f546865206f726465722068617665206e65766572206265656e206d61746368656044820152601960fa1b60648201526084016104ac565b60005b600d54811015611036576020830151600d805483908110610fd657610fd6611465565b9060005260206000200154036110265760405162461bcd60e51b8152602060048201526015602482015274546865204f4e20616c72656164792065786973747360581b60448201526064016104ac565b61102f81611491565b9050610fb3565b506020820151600d80546001810182556000919091527fd7b6990105719101dabeb77144f2a3385c8033acd3af97e9423a695e81ad1eb501556008826002610a57565b634e487b7160e01b600052604160045260246000fd5b6040805190810167ffffffffffffffff811182821017156110b2576110b2611079565b60405290565b600082601f8301126110c957600080fd5b6110d161108f565b8060408401858111156110e357600080fd5b845b818110156110fd5780358452602093840193016110e5565b509095945050505050565b600082601f83011261111957600080fd5b61112161108f565b80608084018581111561113357600080fd5b845b818110156110fd5761114787826110b8565b8452602090930192604001611135565b60008060008061016080868803121561116f57600080fd5b61117987876110b8565b94506111888760408801611108565b93506111978760c088016110b8565b92508661011f8701126111a957600080fd5b6040516060810181811067ffffffffffffffff821117156111cc576111cc611079565b6040529086019080888311156111e157600080fd5b61010088015b838110156111ff5780358252602091820191016111e7565b5050809250505092959194509250565b60006020828403121561122157600080fd5b5035919050565b801515811461123657600080fd5b50565b6000806040838503121561124c57600080fd5b82359150602083013561125e81611228565b809150509250929050565b60008060008061018080868803121561128157600080fd5b61128b87876110b8565b945061129a8760408801611108565b93506112a98760c088016110b8565b92508661011f8701126112bb57600080fd5b6040516080810181811067ffffffffffffffff821117156111cc576111cc611079565b60008060008061014085870312156112f557600080fd5b6112ff86866110b8565b935061130e8660408701611108565b925061131d8660c087016110b8565b915061132d8661010087016110b8565b905092959194509250565b8060005b600281101561135b57815184526020938401939091019060010161133c565b50505050565b806000805b600280821061137557506113b2565b835186845b8381101561139857825182526020928301929091019060010161137a565b505050604095909501945060209290920191600101611366565b5050505050565b61016081016113c88287611338565b6113d56040830186611361565b6113e260c0830185611338565b61010082018360005b600381101561140a5781518352602092830192909101906001016113eb565b50505095945050505050565b60006020828403121561142857600080fd5b815161143381611228565b9392505050565b60208082526011908201527046696c65642070726f6f6620636865636b60781b604082015260600190565b634e487b7160e01b600052603260045260246000fd5b634e487b7160e01b600052601160045260246000fd5b6000600182016114a3576114a361147b565b5060010190565b80820281158282048414176114c1576114c161147b565b92915050565b61018081016114d68287611338565b6114e36040830186611361565b6114f060c0830185611338565b61010082018360005b600481101561140a5781518352602092830192909101906001016114f9565b61014081016115278287611338565b6115346040830186611361565b61154160c0830185611338565b61045a61010083018461133856fea26469706673582212202facc2f477c257b667d85b8c4bc74a59848923ed849016875e66fc8062ef9be564736f6c63430008130033",
  "linkReferences": {},
  "deployedLinkReferences": {}
}